{
  "contractName": "Courses",
  "abi": [
    {
      "constant": true,
      "inputs": [
        {
          "name": "",
          "type": "address"
        }
      ],
      "name": "instructors",
      "outputs": [
        {
          "name": "age",
          "type": "uint256"
        },
        {
          "name": "fName",
          "type": "string"
        },
        {
          "name": "lName",
          "type": "string"
        }
      ],
      "payable": false,
      "stateMutability": "view",
      "type": "function"
    },
    {
      "constant": true,
      "inputs": [
        {
          "name": "",
          "type": "uint256"
        }
      ],
      "name": "instructorAccts",
      "outputs": [
        {
          "name": "",
          "type": "address"
        }
      ],
      "payable": false,
      "stateMutability": "view",
      "type": "function"
    },
    {
      "constant": false,
      "inputs": [
        {
          "name": "_address",
          "type": "address"
        },
        {
          "name": "_age",
          "type": "uint256"
        },
        {
          "name": "_fName",
          "type": "string"
        },
        {
          "name": "_lName",
          "type": "string"
        }
      ],
      "name": "setInstructor",
      "outputs": [],
      "payable": false,
      "stateMutability": "nonpayable",
      "type": "function"
    },
    {
      "constant": true,
      "inputs": [],
      "name": "getInstructors",
      "outputs": [
        {
          "name": "",
          "type": "address[]"
        }
      ],
      "payable": false,
      "stateMutability": "view",
      "type": "function"
    },
    {
      "constant": true,
      "inputs": [
        {
          "name": "_address",
          "type": "address"
        }
      ],
      "name": "getInstructor",
      "outputs": [
        {
          "name": "",
          "type": "uint256"
        },
        {
          "name": "",
          "type": "string"
        },
        {
          "name": "",
          "type": "string"
        }
      ],
      "payable": false,
      "stateMutability": "view",
      "type": "function"
    },
    {
      "constant": true,
      "inputs": [],
      "name": "countInstructors",
      "outputs": [
        {
          "name": "",
          "type": "uint256"
        }
      ],
      "payable": false,
      "stateMutability": "view",
      "type": "function"
    }
  ],
  "bytecode": "0x608060405234801561001057600080fd5b50610b90806100206000396000f3fe608060405260043610610078576000357c0100000000000000000000000000000000000000000000000000000000900463ffffffff1680630429e3721461007d5780632a47d91c146101ba57806346428adc146102f75780635eff7dae146104805780638eb5234c146104ec578063ca8ab93314610567575b600080fd5b34801561008957600080fd5b506100cc600480360360208110156100a057600080fd5b81019080803573ffffffffffffffffffffffffffffffffffffffff169060200190929190505050610592565b604051808481526020018060200180602001838103835285818151815260200191508051906020019080838360005b838110156101165780820151818401526020810190506100fb565b50505050905090810190601f1680156101435780820380516001836020036101000a031916815260200191505b50838103825284818151815260200191508051906020019080838360005b8381101561017c578082015181840152602081019050610161565b50505050905090810190601f1680156101a95780820380516001836020036101000a031916815260200191505b509550505050505060405180910390f35b3480156101c657600080fd5b50610209600480360360208110156101dd57600080fd5b81019080803573ffffffffffffffffffffffffffffffffffffffff1690602001909291905050506107a0565b604051808481526020018060200180602001838103835285818151815260200191508051906020019080838360005b83811015610253578082015181840152602081019050610238565b50505050905090810190601f1680156102805780820380516001836020036101000a031916815260200191505b50838103825284818151815260200191508051906020019080838360005b838110156102b957808201518184015260208101905061029e565b50505050905090810190601f1680156102e65780820380516001836020036101000a031916815260200191505b509550505050505060405180910390f35b34801561030357600080fd5b5061047e6004803603608081101561031a57600080fd5b81019080803573ffffffffffffffffffffffffffffffffffffffff169060200190929190803590602001909291908035906020019064010000000081111561036157600080fd5b82018360208201111561037357600080fd5b8035906020019184600183028401116401000000008311171561039557600080fd5b91908080601f016020809104026020016040519081016040528093929190818152602001838380828437600081840152601f19601f820116905080830192505050505050509192919290803590602001906401000000008111156103f857600080fd5b82018360208201111561040a57600080fd5b8035906020019184600183028401116401000000008311171561042c57600080fd5b91908080601f016020809104026020016040519081016040528093929190818152602001838380828437600081840152601f19601f8201169050808301925050505050505091929192905050506108fa565b005b34801561048c57600080fd5b506104956109e6565b6040518080602001828103825283818151815260200191508051906020019060200280838360005b838110156104d85780820151818401526020810190506104bd565b505050509050019250505060405180910390f35b3480156104f857600080fd5b506105256004803603602081101561050f57600080fd5b8101908080359060200190929190505050610a74565b604051808273ffffffffffffffffffffffffffffffffffffffff1673ffffffffffffffffffffffffffffffffffffffff16815260200191505060405180910390f35b34801561057357600080fd5b5061057c610ab2565b6040518082815260200191505060405180910390f35b60006060806000808573ffffffffffffffffffffffffffffffffffffffff1673ffffffffffffffffffffffffffffffffffffffff168152602001908152602001600020600001546000808673ffffffffffffffffffffffffffffffffffffffff1673ffffffffffffffffffffffffffffffffffffffff1681526020019081526020016000206001016000808773ffffffffffffffffffffffffffffffffffffffff1673ffffffffffffffffffffffffffffffffffffffff168152602001908152602001600020600201818054600181600116156101000203166002900480601f0160208091040260200160405190810160405280929190818152602001828054600181600116156101000203166002900480156106f05780601f106106c5576101008083540402835291602001916106f0565b820191906000526020600020905b8154815290600101906020018083116106d357829003601f168201915b50505050509150808054600181600116156101000203166002900480601f01602080910402602001604051908101604052809291908181526020018280546001816001161561010002031660029004801561078c5780601f106107615761010080835404028352916020019161078c565b820191906000526020600020905b81548152906001019060200180831161076f57829003601f168201915b505050505090509250925092509193909250565b6000602052806000526040600020600091509050806000015490806001018054600181600116156101000203166002900480601f0160208091040260200160405190810160405280929190818152602001828054600181600116156101000203166002900480156108525780601f1061082757610100808354040283529160200191610852565b820191906000526020600020905b81548152906001019060200180831161083557829003601f168201915b505050505090806002018054600181600116156101000203166002900480601f0160208091040260200160405190810160405280929190818152602001828054600181600116156101000203166002900480156108f05780601f106108c5576101008083540402835291602001916108f0565b820191906000526020600020905b8154815290600101906020018083116108d357829003601f168201915b5050505050905083565b60008060008673ffffffffffffffffffffffffffffffffffffffff1673ffffffffffffffffffffffffffffffffffffffff16815260200190815260200160002090508381600001819055508281600101908051906020019061095d929190610abf565b5081816002019080519060200190610976929190610abf565b506001808690806001815401808255809150509060018203906000526020600020016000909192909190916101000a81548173ffffffffffffffffffffffffffffffffffffffff021916908373ffffffffffffffffffffffffffffffffffffffff16021790555050505050505050565b60606001805480602002602001604051908101604052809291908181526020018280548015610a6a57602002820191906000526020600020905b8160009054906101000a900473ffffffffffffffffffffffffffffffffffffffff1673ffffffffffffffffffffffffffffffffffffffff1681526020019060010190808311610a20575b5050505050905090565b600181815481101515610a8357fe5b906000526020600020016000915054906101000a900473ffffffffffffffffffffffffffffffffffffffff1681565b6000600180549050905090565b828054600181600116156101000203166002900490600052602060002090601f016020900481019282601f10610b0057805160ff1916838001178555610b2e565b82800160010185558215610b2e579182015b82811115610b2d578251825591602001919060010190610b12565b5b509050610b3b9190610b3f565b5090565b610b6191905b80821115610b5d576000816000905550600101610b45565b5090565b9056fea165627a7a72305820093a1feeedd76ef9b5d9dfa64bd08dca42afab2b1aca29eaeaec788d446de52a0029",
  "source": "pragma solidity ^0.5.0;\n\ncontract Courses {\n    \n    struct Instructor {\n        uint age;\n        string fName;\n        string lName;\n    }\n    \n    mapping (address => Instructor) public instructors;\n    address[] public instructorAccts;\n    \n    function setInstructor(address _address, uint _age, string memory _fName, string memory _lName) public {\n        Instructor storage instructor = instructors[_address];\n        \n        instructor.age = _age;\n        instructor.fName = _fName;\n        instructor.lName = _lName;\n        \n        instructorAccts.push(_address) -1;\n    }\n    \n    function getInstructors() view public returns(address[] memory) {\n        return instructorAccts;\n    }\n    \n    function getInstructor(address _address) view public returns (uint, string memory, string memory) {\n        return (instructors[_address].age, instructors[_address].fName, instructors[_address].lName);\n    }\n    \n    function countInstructors() view public returns (uint) {\n        return instructorAccts.length;\n    }\n    \n}",
  "sourcePath": "C:/Users/leota/Downloads/blockchain-hw-4-master/blockchain-hw-4-master/contracts/Courses.sol",
  "compiler": {
    "name": "solc",
    "version": "0.5.0+commit.1d4f565a.Emscripten.clang"
  },
  "schemaVersion": "3.0.2",
  "updatedAt": "2019-04-18T03:01:51.528Z",
  "devdoc": {
    "methods": {}
  },
  "userdoc": {
    "methods": {}
  }
}